{
  "fileName": "caipiao.sol",
  "contractName": "caipiao",
  "source": "// contracts/caipiao.sol\n// SPDX-License-Identifier: UNLICENSED\n\npragma solidity ^0.6.12;\n\ncontract caipiao {    \n    function checkOK(uint8 n1, uint8 n2, uint8 n3, uint8 n4) public view returns (bool ok) {\n        return n1 + 1 == n2 && n2 + 1 == n3 || n2 + 1 == n3 && n3 + 1 == n4;\n    }\n}\n\n",
  "sourcePath": "contracts/caipiao.sol",
  "abi": [
    {
      "inputs": [
        {
          "internalType": "uint8",
          "name": "n1",
          "type": "uint8"
        },
        {
          "internalType": "uint8",
          "name": "n2",
          "type": "uint8"
        },
        {
          "internalType": "uint8",
          "name": "n3",
          "type": "uint8"
        },
        {
          "internalType": "uint8",
          "name": "n4",
          "type": "uint8"
        }
      ],
      "name": "checkOK",
      "outputs": [
        {
          "internalType": "bool",
          "name": "ok",
          "type": "bool"
        }
      ],
      "stateMutability": "view",
      "type": "function"
    }
  ],
  "bytecode": "0x608060405234801561001057600080fd5b5061011e806100206000396000f3fe6080604052348015600f57600080fd5b506004361060285760003560e01c8063c3f7d53a14602d575b600080fd5b608060048036036080811015604157600080fd5b81019080803560ff169060200190929190803560ff169060200190929190803560ff169060200190929190803560ff1690602001909291905050506098565b60405180821515815260200191505060405180910390f35b60008360ff166001860160ff1614801560b957508260ff166001850160ff16145b8060de57508260ff166001850160ff1614801560dd57508160ff166001840160ff16145b5b905094935050505056fea2646970667358221220b3952308fb5fdf11bc300e77c1a02a018aef5650f4d45bc90e4924bba8b83b7b64736f6c634300060c0033",
  "compiler": {
    "name": "solc",
    "version": "0.6.12+commit.27d51765.Emscripten.clang",
    "optimizer": {
      "enabled": false,
      "runs": 200
    },
    "evmVersion": "petersburg"
  }
}